{
  "_format": "hh-sol-artifact-1",
  "contractName": "CompanyShares",
  "sourceName": "contracts/CompanyShares.sol",
  "abi": [
    {
      "inputs": [],
      "stateMutability": "nonpayable",
      "type": "constructor"
    },
    {
      "inputs": [
        {
          "internalType": "address",
          "name": "spender",
          "type": "address"
        },
        {
          "internalType": "uint256",
          "name": "allowance",
          "type": "uint256"
        },
        {
          "internalType": "uint256",
          "name": "needed",
          "type": "uint256"
        }
      ],
      "name": "ERC20InsufficientAllowance",
      "type": "error"
    },
    {
      "inputs": [
        {
          "internalType": "address",
          "name": "sender",
          "type": "address"
        },
        {
          "internalType": "uint256",
          "name": "balance",
          "type": "uint256"
        },
        {
          "internalType": "uint256",
          "name": "needed",
          "type": "uint256"
        }
      ],
      "name": "ERC20InsufficientBalance",
      "type": "error"
    },
    {
      "inputs": [
        {
          "internalType": "address",
          "name": "approver",
          "type": "address"
        }
      ],
      "name": "ERC20InvalidApprover",
      "type": "error"
    },
    {
      "inputs": [
        {
          "internalType": "address",
          "name": "receiver",
          "type": "address"
        }
      ],
      "name": "ERC20InvalidReceiver",
      "type": "error"
    },
    {
      "inputs": [
        {
          "internalType": "address",
          "name": "sender",
          "type": "address"
        }
      ],
      "name": "ERC20InvalidSender",
      "type": "error"
    },
    {
      "inputs": [
        {
          "internalType": "address",
          "name": "spender",
          "type": "address"
        }
      ],
      "name": "ERC20InvalidSpender",
      "type": "error"
    },
    {
      "inputs": [
        {
          "internalType": "address",
          "name": "owner",
          "type": "address"
        }
      ],
      "name": "OwnableInvalidOwner",
      "type": "error"
    },
    {
      "inputs": [
        {
          "internalType": "address",
          "name": "account",
          "type": "address"
        }
      ],
      "name": "OwnableUnauthorizedAccount",
      "type": "error"
    },
    {
      "anonymous": false,
      "inputs": [
        {
          "indexed": true,
          "internalType": "address",
          "name": "owner",
          "type": "address"
        },
        {
          "indexed": true,
          "internalType": "address",
          "name": "spender",
          "type": "address"
        },
        {
          "indexed": false,
          "internalType": "uint256",
          "name": "value",
          "type": "uint256"
        }
      ],
      "name": "Approval",
      "type": "event"
    },
    {
      "anonymous": false,
      "inputs": [
        {
          "indexed": false,
          "internalType": "uint256",
          "name": "requestId",
          "type": "uint256"
        },
        {
          "indexed": true,
          "internalType": "address",
          "name": "bidder",
          "type": "address"
        },
        {
          "indexed": false,
          "internalType": "uint256",
          "name": "amount",
          "type": "uint256"
        }
      ],
      "name": "BidPlaced",
      "type": "event"
    },
    {
      "anonymous": false,
      "inputs": [
        {
          "indexed": true,
          "internalType": "address",
          "name": "previousOwner",
          "type": "address"
        },
        {
          "indexed": true,
          "internalType": "address",
          "name": "newOwner",
          "type": "address"
        }
      ],
      "name": "OwnershipTransferred",
      "type": "event"
    },
    {
      "anonymous": false,
      "inputs": [
        {
          "indexed": false,
          "internalType": "uint256",
          "name": "requestId",
          "type": "uint256"
        },
        {
          "indexed": true,
          "internalType": "address",
          "name": "seller",
          "type": "address"
        },
        {
          "indexed": false,
          "internalType": "uint256",
          "name": "amount",
          "type": "uint256"
        }
      ],
      "name": "SellRequestCreated",
      "type": "event"
    },
    {
      "anonymous": false,
      "inputs": [
        {
          "indexed": false,
          "internalType": "uint256",
          "name": "requestId",
          "type": "uint256"
        },
        {
          "indexed": true,
          "internalType": "address",
          "name": "seller",
          "type": "address"
        },
        {
          "indexed": true,
          "internalType": "address",
          "name": "buyer",
          "type": "address"
        },
        {
          "indexed": false,
          "internalType": "uint256",
          "name": "amount",
          "type": "uint256"
        }
      ],
      "name": "ShareSold",
      "type": "event"
    },
    {
      "anonymous": false,
      "inputs": [
        {
          "indexed": true,
          "internalType": "address",
          "name": "buyer",
          "type": "address"
        },
        {
          "indexed": false,
          "internalType": "uint256",
          "name": "amount",
          "type": "uint256"
        }
      ],
      "name": "SharesBought",
      "type": "event"
    },
    {
      "anonymous": false,
      "inputs": [
        {
          "indexed": true,
          "internalType": "address",
          "name": "from",
          "type": "address"
        },
        {
          "indexed": true,
          "internalType": "address",
          "name": "to",
          "type": "address"
        },
        {
          "indexed": false,
          "internalType": "uint256",
          "name": "value",
          "type": "uint256"
        }
      ],
      "name": "Transfer",
      "type": "event"
    },
    {
      "inputs": [],
      "name": "MAX_SHARES_PER_TX",
      "outputs": [
        {
          "internalType": "uint256",
          "name": "",
          "type": "uint256"
        }
      ],
      "stateMutability": "view",
      "type": "function"
    },
    {
      "inputs": [],
      "name": "MAX_SHARES_PER_WALLET",
      "outputs": [
        {
          "internalType": "uint256",
          "name": "",
          "type": "uint256"
        }
      ],
      "stateMutability": "view",
      "type": "function"
    },
    {
      "inputs": [],
      "name": "PRICE_PER_SHARE",
      "outputs": [
        {
          "internalType": "uint256",
          "name": "",
          "type": "uint256"
        }
      ],
      "stateMutability": "view",
      "type": "function"
    },
    {
      "inputs": [
        {
          "internalType": "address",
          "name": "",
          "type": "address"
        }
      ],
      "name": "activeRequest",
      "outputs": [
        {
          "internalType": "uint256",
          "name": "",
          "type": "uint256"
        }
      ],
      "stateMutability": "view",
      "type": "function"
    },
    {
      "inputs": [
        {
          "internalType": "address",
          "name": "owner",
          "type": "address"
        },
        {
          "internalType": "address",
          "name": "spender",
          "type": "address"
        }
      ],
      "name": "allowance",
      "outputs": [
        {
          "internalType": "uint256",
          "name": "",
          "type": "uint256"
        }
      ],
      "stateMutability": "view",
      "type": "function"
    },
    {
      "inputs": [
        {
          "internalType": "address",
          "name": "spender",
          "type": "address"
        },
        {
          "internalType": "uint256",
          "name": "value",
          "type": "uint256"
        }
      ],
      "name": "approve",
      "outputs": [
        {
          "internalType": "bool",
          "name": "",
          "type": "bool"
        }
      ],
      "stateMutability": "nonpayable",
      "type": "function"
    },
    {
      "inputs": [
        {
          "internalType": "address",
          "name": "account",
          "type": "address"
        }
      ],
      "name": "balanceOf",
      "outputs": [
        {
          "internalType": "uint256",
          "name": "",
          "type": "uint256"
        }
      ],
      "stateMutability": "view",
      "type": "function"
    },
    {
      "inputs": [
        {
          "internalType": "uint256",
          "name": "",
          "type": "uint256"
        },
        {
          "internalType": "uint256",
          "name": "",
          "type": "uint256"
        }
      ],
      "name": "bids",
      "outputs": [
        {
          "internalType": "address",
          "name": "bidder",
          "type": "address"
        },
        {
          "internalType": "uint256",
          "name": "amount",
          "type": "uint256"
        },
        {
          "internalType": "bool",
          "name": "isConfirmed",
          "type": "bool"
        }
      ],
      "stateMutability": "view",
      "type": "function"
    },
    {
      "inputs": [
        {
          "internalType": "uint256",
          "name": "amount",
          "type": "uint256"
        }
      ],
      "name": "buyShares",
      "outputs": [],
      "stateMutability": "payable",
      "type": "function"
    },
    {
      "inputs": [
        {
          "internalType": "uint256",
          "name": "amount",
          "type": "uint256"
        }
      ],
      "name": "createSellRequest",
      "outputs": [],
      "stateMutability": "nonpayable",
      "type": "function"
    },
    {
      "inputs": [],
      "name": "decimals",
      "outputs": [
        {
          "internalType": "uint8",
          "name": "",
          "type": "uint8"
        }
      ],
      "stateMutability": "view",
      "type": "function"
    },
    {
      "inputs": [
        {
          "internalType": "uint256",
          "name": "requestId",
          "type": "uint256"
        },
        {
          "internalType": "address",
          "name": "buyer",
          "type": "address"
        }
      ],
      "name": "finalizeSale",
      "outputs": [],
      "stateMutability": "nonpayable",
      "type": "function"
    },
    {
      "inputs": [],
      "name": "getMyRequest",
      "outputs": [
        {
          "components": [
            {
              "internalType": "address",
              "name": "bidder",
              "type": "address"
            },
            {
              "internalType": "uint256",
              "name": "amount",
              "type": "uint256"
            },
            {
              "internalType": "bool",
              "name": "isConfirmed",
              "type": "bool"
            }
          ],
          "internalType": "struct CompanyShares.Bid[]",
          "name": "",
          "type": "tuple[]"
        }
      ],
      "stateMutability": "view",
      "type": "function"
    },
    {
      "inputs": [],
      "name": "getSharesOwned",
      "outputs": [
        {
          "internalType": "uint256",
          "name": "",
          "type": "uint256"
        }
      ],
      "stateMutability": "view",
      "type": "function"
    },
    {
      "inputs": [],
      "name": "name",
      "outputs": [
        {
          "internalType": "string",
          "name": "",
          "type": "string"
        }
      ],
      "stateMutability": "view",
      "type": "function"
    },
    {
      "inputs": [],
      "name": "owner",
      "outputs": [
        {
          "internalType": "address",
          "name": "",
          "type": "address"
        }
      ],
      "stateMutability": "view",
      "type": "function"
    },
    {
      "inputs": [
        {
          "internalType": "uint256",
          "name": "requestId",
          "type": "uint256"
        }
      ],
      "name": "payForTrade",
      "outputs": [],
      "stateMutability": "payable",
      "type": "function"
    },
    {
      "inputs": [
        {
          "internalType": "uint256",
          "name": "requestId",
          "type": "uint256"
        },
        {
          "internalType": "uint256",
          "name": "price",
          "type": "uint256"
        }
      ],
      "name": "placeBid",
      "outputs": [],
      "stateMutability": "nonpayable",
      "type": "function"
    },
    {
      "inputs": [],
      "name": "renounceOwnership",
      "outputs": [],
      "stateMutability": "nonpayable",
      "type": "function"
    },
    {
      "inputs": [],
      "name": "requestIdCounter",
      "outputs": [
        {
          "internalType": "uint256",
          "name": "",
          "type": "uint256"
        }
      ],
      "stateMutability": "view",
      "type": "function"
    },
    {
      "inputs": [
        {
          "internalType": "uint256",
          "name": "",
          "type": "uint256"
        }
      ],
      "name": "sellRequests",
      "outputs": [
        {
          "internalType": "uint256",
          "name": "id",
          "type": "uint256"
        },
        {
          "internalType": "address",
          "name": "seller",
          "type": "address"
        },
        {
          "internalType": "uint256",
          "name": "amount",
          "type": "uint256"
        },
        {
          "internalType": "bool",
          "name": "isActive",
          "type": "bool"
        },
        {
          "internalType": "address",
          "name": "selectedBuyer",
          "type": "address"
        }
      ],
      "stateMutability": "view",
      "type": "function"
    },
    {
      "inputs": [
        {
          "internalType": "address",
          "name": "",
          "type": "address"
        }
      ],
      "name": "sharesOwned",
      "outputs": [
        {
          "internalType": "uint256",
          "name": "",
          "type": "uint256"
        }
      ],
      "stateMutability": "view",
      "type": "function"
    },
    {
      "inputs": [],
      "name": "symbol",
      "outputs": [
        {
          "internalType": "string",
          "name": "",
          "type": "string"
        }
      ],
      "stateMutability": "view",
      "type": "function"
    },
    {
      "inputs": [],
      "name": "totalSupply",
      "outputs": [
        {
          "internalType": "uint256",
          "name": "",
          "type": "uint256"
        }
      ],
      "stateMutability": "view",
      "type": "function"
    },
    {
      "inputs": [
        {
          "internalType": "address",
          "name": "to",
          "type": "address"
        },
        {
          "internalType": "uint256",
          "name": "value",
          "type": "uint256"
        }
      ],
      "name": "transfer",
      "outputs": [
        {
          "internalType": "bool",
          "name": "",
          "type": "bool"
        }
      ],
      "stateMutability": "nonpayable",
      "type": "function"
    },
    {
      "inputs": [
        {
          "internalType": "address",
          "name": "from",
          "type": "address"
        },
        {
          "internalType": "address",
          "name": "to",
          "type": "address"
        },
        {
          "internalType": "uint256",
          "name": "value",
          "type": "uint256"
        }
      ],
      "name": "transferFrom",
      "outputs": [
        {
          "internalType": "bool",
          "name": "",
          "type": "bool"
        }
      ],
      "stateMutability": "nonpayable",
      "type": "function"
    },
    {
      "inputs": [
        {
          "internalType": "address",
          "name": "newOwner",
          "type": "address"
        }
      ],
      "name": "transferOwnership",
      "outputs": [],
      "stateMutability": "nonpayable",
      "type": "function"
    },
    {
      "inputs": [],
      "name": "withdrawEther",
      "outputs": [],
      "stateMutability": "nonpayable",
      "type": "function"
    }
  ],
  "bytecode": "0x6080604052600160065534801561001557600080fd5b50336040518060400160405280600d81526020017f436f6d70616e79536861726573000000000000000000000000000000000000008152506040518060400160405280600381526020017f435354000000000000000000000000000000000000000000000000000000000081525081600390816100929190610711565b5080600490816100a29190610711565b505050600073ffffffffffffffffffffffffffffffffffffffff168173ffffffffffffffffffffffffffffffffffffffff16036101175760006040517f1e4fbdf700000000000000000000000000000000000000000000000000000000815260040161010e9190610824565b60405180910390fd5b6101268161014e60201b60201c565b5061013833603261021460201b60201c565b61014930603261021460201b60201c565b610903565b6000600560009054906101000a900473ffffffffffffffffffffffffffffffffffffffff16905081600560006101000a81548173ffffffffffffffffffffffffffffffffffffffff021916908373ffffffffffffffffffffffffffffffffffffffff1602179055508173ffffffffffffffffffffffffffffffffffffffff168173ffffffffffffffffffffffffffffffffffffffff167f8be0079c531659141344cd1fd0a4f28419497f9722a3daafe3b4186f6b6457e060405160405180910390a35050565b600073ffffffffffffffffffffffffffffffffffffffff168273ffffffffffffffffffffffffffffffffffffffff16036102865760006040517fec442f0500000000000000000000000000000000000000000000000000000000815260040161027d9190610824565b60405180910390fd5b6102986000838361029c60201b60201c565b5050565b600073ffffffffffffffffffffffffffffffffffffffff168373ffffffffffffffffffffffffffffffffffffffff16036102ee5780600260008282546102e2919061086e565b925050819055506103c1565b60008060008573ffffffffffffffffffffffffffffffffffffffff1673ffffffffffffffffffffffffffffffffffffffff1681526020019081526020016000205490508181101561037a578381836040517fe450d38c000000000000000000000000000000000000000000000000000000008152600401610371939291906108b1565b60405180910390fd5b8181036000808673ffffffffffffffffffffffffffffffffffffffff1673ffffffffffffffffffffffffffffffffffffffff16815260200190815260200160002081905550505b600073ffffffffffffffffffffffffffffffffffffffff168273ffffffffffffffffffffffffffffffffffffffff160361040a5780600260008282540392505081905550610457565b806000808473ffffffffffffffffffffffffffffffffffffffff1673ffffffffffffffffffffffffffffffffffffffff168152602001908152602001600020600082825401925050819055505b8173ffffffffffffffffffffffffffffffffffffffff168373ffffffffffffffffffffffffffffffffffffffff167fddf252ad1be2c89b69c2b068fc378daa952ba7f163c4a11628f55a4df523b3ef836040516104b491906108e8565b60405180910390a3505050565b600081519050919050565b7f4e487b7100000000000000000000000000000000000000000000000000000000600052604160045260246000fd5b7f4e487b7100000000000000000000000000000000000000000000000000000000600052602260045260246000fd5b6000600282049050600182168061054257607f821691505b602082108103610555576105546104fb565b5b50919050565b60008190508160005260206000209050919050565b60006020601f8301049050919050565b600082821b905092915050565b6000600883026105bd7fffffffffffffffffffffffffffffffffffffffffffffffffffffffffffffffff82610580565b6105c78683610580565b95508019841693508086168417925050509392505050565b6000819050919050565b6000819050919050565b600061060e610609610604846105df565b6105e9565b6105df565b9050919050565b6000819050919050565b610628836105f3565b61063c61063482610615565b84845461058d565b825550505050565b600090565b610651610644565b61065c81848461061f565b505050565b5b8181101561068057610675600082610649565b600181019050610662565b5050565b601f8211156106c5576106968161055b565b61069f84610570565b810160208510156106ae578190505b6106c26106ba85610570565b830182610661565b50505b505050565b600082821c905092915050565b60006106e8600019846008026106ca565b1980831691505092915050565b600061070183836106d7565b9150826002028217905092915050565b61071a826104c1565b67ffffffffffffffff811115610733576107326104cc565b5b61073d825461052a565b610748828285610684565b600060209050601f83116001811461077b5760008415610769578287015190505b61077385826106f5565b8655506107db565b601f1984166107898661055b565b60005b828110156107b15784890151825560018201915060208501945060208101905061078c565b868310156107ce57848901516107ca601f8916826106d7565b8355505b6001600288020188555050505b505050505050565b600073ffffffffffffffffffffffffffffffffffffffff82169050919050565b600061080e826107e3565b9050919050565b61081e81610803565b82525050565b60006020820190506108396000830184610815565b92915050565b7f4e487b7100000000000000000000000000000000000000000000000000000000600052601160045260246000fd5b6000610879826105df565b9150610884836105df565b925082820190508082111561089c5761089b61083f565b5b92915050565b6108ab816105df565b82525050565b60006060820190506108c66000830186610815565b6108d360208301856108a2565b6108e060408301846108a2565b949350505050565b60006020820190506108fd60008301846108a2565b92915050565b61327a806109126000396000f3fe6080604052600436106101b75760003560e01c80637b3c4baa116100ec578063b6e169921161008a578063dd62ed3e11610064578063dd62ed3e1461060e578063df1fb7131461064b578063ecab514e14610676578063f2fde38b146106a1576101b7565b8063b6e1699214610599578063c2c77938146105b5578063d1a93d18146105f2576101b7565b806395d89b41116100c657806395d89b41146104dd578063a9059cbb14610508578063b4d16edd14610545578063b4d346be14610570576101b7565b80637b3c4baa146104485780638da5cb5b146104875780638db5888a146104b2576101b7565b806323b872dd1161015957806357c90de51161013357806357c90de5146103b457806370a08231146103dd578063715018a61461041a5780637362377b14610431576101b7565b806323b872dd14610323578063313ce567146103605780633bca10851461038b576101b7565b806318160ddd1161019557806318160ddd146102615780631a5230bb1461028c5780631aaf9562146102cd578063217a46ba146102f8576101b7565b806306fdde03146101bc578063095ea7b3146101e75780631810d85914610224575b600080fd5b3480156101c857600080fd5b506101d16106ca565b6040516101de91906125ab565b60405180910390f35b3480156101f357600080fd5b5061020e60048036038101906102099190612666565b61075c565b60405161021b91906126c1565b60405180910390f35b34801561023057600080fd5b5061024b600480360381019061024691906126dc565b61077f565b6040516102589190612718565b60405180910390f35b34801561026d57600080fd5b50610276610797565b6040516102839190612718565b60405180910390f35b34801561029857600080fd5b506102b360048036038101906102ae9190612733565b6107a1565b6040516102c495949392919061276f565b60405180910390f35b3480156102d957600080fd5b506102e2610824565b6040516102ef9190612718565b60405180910390f35b34801561030457600080fd5b5061030d61086b565b60405161031a9190612718565b60405180910390f35b34801561032f57600080fd5b5061034a600480360381019061034591906127c2565b610870565b60405161035791906126c1565b60405180910390f35b34801561036c57600080fd5b5061037561089f565b6040516103829190612831565b60405180910390f35b34801561039757600080fd5b506103b260048036038101906103ad9190612733565b6108a8565b005b3480156103c057600080fd5b506103db60048036038101906103d6919061284c565b610bb5565b005b3480156103e957600080fd5b5061040460048036038101906103ff91906126dc565b610df3565b6040516104119190612718565b60405180910390f35b34801561042657600080fd5b5061042f610e3b565b005b34801561043d57600080fd5b50610446610e4f565b005b34801561045457600080fd5b5061046f600480360381019061046a919061284c565b610ea7565b60405161047e9392919061288c565b60405180910390f35b34801561049357600080fd5b5061049c610f1b565b6040516104a991906128c3565b60405180910390f35b3480156104be57600080fd5b506104c7610f45565b6040516104d49190612718565b60405180910390f35b3480156104e957600080fd5b506104f2610f4b565b6040516104ff91906125ab565b60405180910390f35b34801561051457600080fd5b5061052f600480360381019061052a9190612666565b610fdd565b60405161053c91906126c1565b60405180910390f35b34801561055157600080fd5b5061055a611000565b6040516105679190612718565b60405180910390f35b34801561057c57600080fd5b50610597600480360381019061059291906128de565b611005565b005b6105b360048036038101906105ae9190612733565b611378565b005b3480156105c157600080fd5b506105dc60048036038101906105d791906126dc565b6117df565b6040516105e99190612718565b60405180910390f35b61060c60048036038101906106079190612733565b6117f7565b005b34801561061a57600080fd5b506106356004803603810190610630919061291e565b611a81565b6040516106429190612718565b60405180910390f35b34801561065757600080fd5b50610660611b08565b60405161066d9190612718565b60405180910390f35b34801561068257600080fd5b5061068b611b14565b6040516106989190612a7c565b60405180910390f35b3480156106ad57600080fd5b506106c860048036038101906106c391906126dc565b611c3e565b005b6060600380546106d990612acd565b80601f016020809104026020016040519081016040528092919081815260200182805461070590612acd565b80156107525780601f1061072757610100808354040283529160200191610752565b820191906000526020600020905b81548152906001019060200180831161073557829003601f168201915b5050505050905090565b600080610767611cc4565b9050610774818585611ccc565b600191505092915050565b60096020528060005260406000206000915090505481565b6000600254905090565b60076020528060005260406000206000915090508060000154908060010160009054906101000a900473ffffffffffffffffffffffffffffffffffffffff16908060020154908060030160009054906101000a900460ff16908060030160019054906101000a900473ffffffffffffffffffffffffffffffffffffffff16905085565b6000600960003373ffffffffffffffffffffffffffffffffffffffff1673ffffffffffffffffffffffffffffffffffffffff16815260200190815260200160002054905090565b600581565b60008061087b611cc4565b9050610888858285611cde565b610893858585611d73565b60019150509392505050565b60006012905090565b80600960003373ffffffffffffffffffffffffffffffffffffffff1673ffffffffffffffffffffffffffffffffffffffff16815260200190815260200160002054101561092a576040517f08c379a000000000000000000000000000000000000000000000000000000000815260040161092190612b4a565b60405180910390fd5b6000151560076000600a60003373ffffffffffffffffffffffffffffffffffffffff1673ffffffffffffffffffffffffffffffffffffffff16815260200190815260200160002054815260200190815260200160002060030160009054906101000a900460ff161515146109d3576040517f08c379a00000000000000000000000000000000000000000000000000000000081526004016109ca90612bdc565b60405180910390fd5b6000600660008154809291906109e890612c2b565b9190505590506040518060a001604052808281526020013373ffffffffffffffffffffffffffffffffffffffff168152602001838152602001600115158152602001600073ffffffffffffffffffffffffffffffffffffffff16815250600760008381526020019081526020016000206000820151816000015560208201518160010160006101000a81548173ffffffffffffffffffffffffffffffffffffffff021916908373ffffffffffffffffffffffffffffffffffffffff1602179055506040820151816002015560608201518160030160006101000a81548160ff02191690831515021790555060808201518160030160016101000a81548173ffffffffffffffffffffffffffffffffffffffff021916908373ffffffffffffffffffffffffffffffffffffffff16021790555090505080600a60003373ffffffffffffffffffffffffffffffffffffffff1673ffffffffffffffffffffffffffffffffffffffff168152602001908152602001600020819055503373ffffffffffffffffffffffffffffffffffffffff167f91c0dd48d6ed85681b080819fa97513de28f78a7cc4a5c15458d8f54a96d724c8284604051610ba9929190612c73565b60405180910390a25050565b6007600083815260200190815260200160002060030160009054906101000a900460ff16610c18576040517f08c379a0000000000000000000000000000000000000000000000000000000008152600401610c0f90612ce8565b60405180910390fd5b600a6007600084815260200190815260200160002060020154600960003373ffffffffffffffffffffffffffffffffffffffff1673ffffffffffffffffffffffffffffffffffffffff16815260200190815260200160002054610c7b9190612d08565b1115610cbc576040517f08c379a0000000000000000000000000000000000000000000000000000000008152600401610cb390612d88565b60405180910390fd5b6008600083815260200190815260200160002060405180606001604052803373ffffffffffffffffffffffffffffffffffffffff16815260200183815260200160001515815250908060018154018082558091505060019003906000526020600020906003020160009091909190915060008201518160000160006101000a81548173ffffffffffffffffffffffffffffffffffffffff021916908373ffffffffffffffffffffffffffffffffffffffff1602179055506020820151816001015560408201518160020160006101000a81548160ff02191690831515021790555050503373ffffffffffffffffffffffffffffffffffffffff167f0e54eff26401bf69b81b26f60bd85ef47f5d85275c1d268d84f68d6897431c478383604051610de7929190612c73565b60405180910390a25050565b60008060008373ffffffffffffffffffffffffffffffffffffffff1673ffffffffffffffffffffffffffffffffffffffff168152602001908152602001600020549050919050565b610e43611e67565b610e4d6000611eee565b565b610e57611e67565b610e5f610f1b565b73ffffffffffffffffffffffffffffffffffffffff166108fc479081150290604051600060405180830381858888f19350505050158015610ea4573d6000803e3d6000fd5b50565b60086020528160005260406000208181548110610ec357600080fd5b9060005260206000209060030201600091509150508060000160009054906101000a900473ffffffffffffffffffffffffffffffffffffffff16908060010154908060020160009054906101000a900460ff16905083565b6000600560009054906101000a900473ffffffffffffffffffffffffffffffffffffffff16905090565b60065481565b606060048054610f5a90612acd565b80601f0160208091040260200160405190810160405280929190818152602001828054610f8690612acd565b8015610fd35780601f10610fa857610100808354040283529160200191610fd3565b820191906000526020600020905b815481529060010190602001808311610fb657829003601f168201915b5050505050905090565b600080610fe8611cc4565b9050610ff5818585611d73565b600191505092915050565b600a81565b60006007600084815260200190815260200160002090508060030160009054906101000a900460ff1661106d576040517f08c379a000000000000000000000000000000000000000000000000000000000815260040161106490612ce8565b60405180910390fd5b3373ffffffffffffffffffffffffffffffffffffffff168160010160009054906101000a900473ffffffffffffffffffffffffffffffffffffffff1673ffffffffffffffffffffffffffffffffffffffff16146110ff576040517f08c379a00000000000000000000000000000000000000000000000000000000081526004016110f690612df4565b60405180910390fd5b6111098383611fb4565b611148576040517f08c379a000000000000000000000000000000000000000000000000000000000815260040161113f90612e60565b60405180910390fd5b600060086000858152602001908152602001600020805480602002602001604051908101604052809291908181526020016000905b8282101561122a57838290600052602060002090600302016040518060600160405290816000820160009054906101000a900473ffffffffffffffffffffffffffffffffffffffff1673ffffffffffffffffffffffffffffffffffffffff1673ffffffffffffffffffffffffffffffffffffffff168152602001600182015481526020016002820160009054906101000a900460ff1615151515815250508152602001906001019061117d565b5050505090506000806000905060005b83518110156112c6578573ffffffffffffffffffffffffffffffffffffffff1684828151811061126d5761126c612e80565b5b60200260200101516000015173ffffffffffffffffffffffffffffffffffffffff16036112b9578381815181106112a7576112a6612e80565b5b60200260200101516020015192508091505b808060010191505061123a565b50818573ffffffffffffffffffffffffffffffffffffffff16311015611321576040517f08c379a000000000000000000000000000000000000000000000000000000000815260040161131890612efb565b60405180910390fd5b600160086000888152602001908152602001600020828154811061134857611347612e80565b5b906000526020600020906003020160020160006101000a81548160ff021916908315150217905550505050505050565b6000600760008381526020019081526020016000209050600060086000848152602001908152602001600020805480602002602001604051908101604052809291908181526020016000905b8282101561147157838290600052602060002090600302016040518060600160405290816000820160009054906101000a900473ffffffffffffffffffffffffffffffffffffffff1673ffffffffffffffffffffffffffffffffffffffff1673ffffffffffffffffffffffffffffffffffffffff168152602001600182015481526020016002820160009054906101000a900460ff161515151581525050815260200190600101906113c4565b505050509050600080600090505b8251811015611508573373ffffffffffffffffffffffffffffffffffffffff168382815181106114b2576114b1612e80565b5b60200260200101516000015173ffffffffffffffffffffffffffffffffffffffff16036114fb578281815181106114ec576114eb612e80565b5b60200260200101516020015191505b808060010191505061147f565b5080670de0b6b3a76400003461151e9190612f4a565b1461155e576040517f08c379a000000000000000000000000000000000000000000000000000000000815260040161155590612fc7565b60405180910390fd5b670de0b6b3a7640000816115729190612fe7565b90508260010160009054906101000a900473ffffffffffffffffffffffffffffffffffffffff1673ffffffffffffffffffffffffffffffffffffffff166108fc829081150290604051600060405180830381858888f193505050501580156115de573d6000803e3d6000fd5b506116128360010160009054906101000a900473ffffffffffffffffffffffffffffffffffffffff16338560020154611d73565b8260020154600960008560010160009054906101000a900473ffffffffffffffffffffffffffffffffffffffff1673ffffffffffffffffffffffffffffffffffffffff1673ffffffffffffffffffffffffffffffffffffffff16815260200190815260200160002060008282546116899190613029565b925050819055508260020154600960003373ffffffffffffffffffffffffffffffffffffffff1673ffffffffffffffffffffffffffffffffffffffff16815260200190815260200160002060008282546116e39190612d08565b9250508190555060008360030160006101000a81548160ff021916908315150217905550338360030160016101000a81548173ffffffffffffffffffffffffffffffffffffffff021916908373ffffffffffffffffffffffffffffffffffffffff1602179055503373ffffffffffffffffffffffffffffffffffffffff168360010160009054906101000a900473ffffffffffffffffffffffffffffffffffffffff1673ffffffffffffffffffffffffffffffffffffffff167fae5e240bac6f9effa1d95a2ad953afe882904c1a84faec466d10705635445d4a8686600201546040516117d1929190612c73565b60405180910390a350505050565b600a6020528060005260406000206000915090505481565b600081118015611808575060058111155b611847576040517f08c379a000000000000000000000000000000000000000000000000000000000815260040161183e906130a9565b60405180910390fd5b600a81600960003373ffffffffffffffffffffffffffffffffffffffff1673ffffffffffffffffffffffffffffffffffffffff168152602001908152602001600020546118949190612d08565b11156118d5576040517f08c379a00000000000000000000000000000000000000000000000000000000081526004016118cc90613115565b60405180910390fd5b806118df30610df3565b1015611920576040517f08c379a000000000000000000000000000000000000000000000000000000000815260040161191790613181565b60405180910390fd5b670de0b6b3a764000080826119359190612fe7565b61193f9190612f4a565b341015611981576040517f08c379a0000000000000000000000000000000000000000000000000000000008152600401611978906131ed565b60405180910390fd5b61198c303383611d73565b80600960003373ffffffffffffffffffffffffffffffffffffffff1673ffffffffffffffffffffffffffffffffffffffff16815260200190815260200160002060008282546119db9190612d08565b925050819055506119ea610f1b565b73ffffffffffffffffffffffffffffffffffffffff166108fc349081150290604051600060405180830381858888f19350505050158015611a2f573d6000803e3d6000fd5b503373ffffffffffffffffffffffffffffffffffffffff167f2b6fa6b8279eb0f7d69e4bab60ce5f4cdc476c1e1696c7a74610ad014657ca0982604051611a769190612718565b60405180910390a250565b6000600160008473ffffffffffffffffffffffffffffffffffffffff1673ffffffffffffffffffffffffffffffffffffffff16815260200190815260200160002060008373ffffffffffffffffffffffffffffffffffffffff1673ffffffffffffffffffffffffffffffffffffffff16815260200190815260200160002054905092915050565b670de0b6b3a764000081565b606060086000600a60003373ffffffffffffffffffffffffffffffffffffffff1673ffffffffffffffffffffffffffffffffffffffff168152602001908152602001600020548152602001908152602001600020805480602002602001604051908101604052809291908181526020016000905b82821015611c3557838290600052602060002090600302016040518060600160405290816000820160009054906101000a900473ffffffffffffffffffffffffffffffffffffffff1673ffffffffffffffffffffffffffffffffffffffff1673ffffffffffffffffffffffffffffffffffffffff168152602001600182015481526020016002820160009054906101000a900460ff16151515158152505081526020019060010190611b88565b50505050905090565b611c46611e67565b600073ffffffffffffffffffffffffffffffffffffffff168173ffffffffffffffffffffffffffffffffffffffff1603611cb85760006040517f1e4fbdf7000000000000000000000000000000000000000000000000000000008152600401611caf91906128c3565b60405180910390fd5b611cc181611eee565b50565b600033905090565b611cd9838383600161211f565b505050565b6000611cea8484611a81565b90507fffffffffffffffffffffffffffffffffffffffffffffffffffffffffffffffff811015611d6d5781811015611d5d578281836040517ffb8f41b2000000000000000000000000000000000000000000000000000000008152600401611d549392919061320d565b60405180910390fd5b611d6c8484848403600061211f565b5b50505050565b600073ffffffffffffffffffffffffffffffffffffffff168373ffffffffffffffffffffffffffffffffffffffff1603611de55760006040517f96c6fd1e000000000000000000000000000000000000000000000000000000008152600401611ddc91906128c3565b60405180910390fd5b600073ffffffffffffffffffffffffffffffffffffffff168273ffffffffffffffffffffffffffffffffffffffff1603611e575760006040517fec442f05000000000000000000000000000000000000000000000000000000008152600401611e4e91906128c3565b60405180910390fd5b611e628383836122f6565b505050565b611e6f611cc4565b73ffffffffffffffffffffffffffffffffffffffff16611e8d610f1b565b73ffffffffffffffffffffffffffffffffffffffff1614611eec57611eb0611cc4565b6040517f118cdaa7000000000000000000000000000000000000000000000000000000008152600401611ee391906128c3565b60405180910390fd5b565b6000600560009054906101000a900473ffffffffffffffffffffffffffffffffffffffff16905081600560006101000a81548173ffffffffffffffffffffffffffffffffffffffff021916908373ffffffffffffffffffffffffffffffffffffffff1602179055508173ffffffffffffffffffffffffffffffffffffffff168173ffffffffffffffffffffffffffffffffffffffff167f8be0079c531659141344cd1fd0a4f28419497f9722a3daafe3b4186f6b6457e060405160405180910390a35050565b60008060086000858152602001908152602001600020805480602002602001604051908101604052809291908181526020016000905b8282101561209757838290600052602060002090600302016040518060600160405290816000820160009054906101000a900473ffffffffffffffffffffffffffffffffffffffff1673ffffffffffffffffffffffffffffffffffffffff1673ffffffffffffffffffffffffffffffffffffffff168152602001600182015481526020016002820160009054906101000a900460ff16151515158152505081526020019060010190611fea565b50505050905060005b8151811015612112578373ffffffffffffffffffffffffffffffffffffffff168282815181106120d3576120d2612e80565b5b60200260200101516000015173ffffffffffffffffffffffffffffffffffffffff160361210557600192505050612119565b80806001019150506120a0565b5060009150505b92915050565b600073ffffffffffffffffffffffffffffffffffffffff168473ffffffffffffffffffffffffffffffffffffffff16036121915760006040517fe602df0500000000000000000000000000000000000000000000000000000000815260040161218891906128c3565b60405180910390fd5b600073ffffffffffffffffffffffffffffffffffffffff168373ffffffffffffffffffffffffffffffffffffffff16036122035760006040517f94280d620000000000000000000000000000000000000000000000000000000081526004016121fa91906128c3565b60405180910390fd5b81600160008673ffffffffffffffffffffffffffffffffffffffff1673ffffffffffffffffffffffffffffffffffffffff16815260200190815260200160002060008573ffffffffffffffffffffffffffffffffffffffff1673ffffffffffffffffffffffffffffffffffffffff1681526020019081526020016000208190555080156122f0578273ffffffffffffffffffffffffffffffffffffffff168473ffffffffffffffffffffffffffffffffffffffff167f8c5be1e5ebec7d5bd14f71427d1e84f3dd0314c0f7b2291e5b200ac8c7c3b925846040516122e79190612718565b60405180910390a35b50505050565b600073ffffffffffffffffffffffffffffffffffffffff168373ffffffffffffffffffffffffffffffffffffffff160361234857806002600082825461233c9190612d08565b9250508190555061241b565b60008060008573ffffffffffffffffffffffffffffffffffffffff1673ffffffffffffffffffffffffffffffffffffffff168152602001908152602001600020549050818110156123d4578381836040517fe450d38c0000000000000000000000000000000000000000000000000000000081526004016123cb9392919061320d565b60405180910390fd5b8181036000808673ffffffffffffffffffffffffffffffffffffffff1673ffffffffffffffffffffffffffffffffffffffff16815260200190815260200160002081905550505b600073ffffffffffffffffffffffffffffffffffffffff168273ffffffffffffffffffffffffffffffffffffffff160361246457806002600082825403925050819055506124b1565b806000808473ffffffffffffffffffffffffffffffffffffffff1673ffffffffffffffffffffffffffffffffffffffff168152602001908152602001600020600082825401925050819055505b8173ffffffffffffffffffffffffffffffffffffffff168373ffffffffffffffffffffffffffffffffffffffff167fddf252ad1be2c89b69c2b068fc378daa952ba7f163c4a11628f55a4df523b3ef8360405161250e9190612718565b60405180910390a3505050565b600081519050919050565b600082825260208201905092915050565b60005b8381101561255557808201518184015260208101905061253a565b60008484015250505050565b6000601f19601f8301169050919050565b600061257d8261251b565b6125878185612526565b9350612597818560208601612537565b6125a081612561565b840191505092915050565b600060208201905081810360008301526125c58184612572565b905092915050565b600080fd5b600073ffffffffffffffffffffffffffffffffffffffff82169050919050565b60006125fd826125d2565b9050919050565b61260d816125f2565b811461261857600080fd5b50565b60008135905061262a81612604565b92915050565b6000819050919050565b61264381612630565b811461264e57600080fd5b50565b6000813590506126608161263a565b92915050565b6000806040838503121561267d5761267c6125cd565b5b600061268b8582860161261b565b925050602061269c85828601612651565b9150509250929050565b60008115159050919050565b6126bb816126a6565b82525050565b60006020820190506126d660008301846126b2565b92915050565b6000602082840312156126f2576126f16125cd565b5b60006127008482850161261b565b91505092915050565b61271281612630565b82525050565b600060208201905061272d6000830184612709565b92915050565b600060208284031215612749576127486125cd565b5b600061275784828501612651565b91505092915050565b612769816125f2565b82525050565b600060a0820190506127846000830188612709565b6127916020830187612760565b61279e6040830186612709565b6127ab60608301856126b2565b6127b86080830184612760565b9695505050505050565b6000806000606084860312156127db576127da6125cd565b5b60006127e98682870161261b565b93505060206127fa8682870161261b565b925050604061280b86828701612651565b9150509250925092565b600060ff82169050919050565b61282b81612815565b82525050565b60006020820190506128466000830184612822565b92915050565b60008060408385031215612863576128626125cd565b5b600061287185828601612651565b925050602061288285828601612651565b9150509250929050565b60006060820190506128a16000830186612760565b6128ae6020830185612709565b6128bb60408301846126b2565b949350505050565b60006020820190506128d86000830184612760565b92915050565b600080604083850312156128f5576128f46125cd565b5b600061290385828601612651565b92505060206129148582860161261b565b9150509250929050565b60008060408385031215612935576129346125cd565b5b60006129438582860161261b565b92505060206129548582860161261b565b9150509250929050565b600081519050919050565b600082825260208201905092915050565b6000819050602082019050919050565b612993816125f2565b82525050565b6129a281612630565b82525050565b6129b1816126a6565b82525050565b6060820160008201516129cd600085018261298a565b5060208201516129e06020850182612999565b5060408201516129f360408501826129a8565b50505050565b6000612a0583836129b7565b60608301905092915050565b6000602082019050919050565b6000612a298261295e565b612a338185612969565b9350612a3e8361297a565b8060005b83811015612a6f578151612a5688826129f9565b9750612a6183612a11565b925050600181019050612a42565b5085935050505092915050565b60006020820190508181036000830152612a968184612a1e565b905092915050565b7f4e487b7100000000000000000000000000000000000000000000000000000000600052602260045260246000fd5b60006002820490506001821680612ae557607f821691505b602082108103612af857612af7612a9e565b5b50919050565b7f4e6f7420656e6f7567682073686172657320746f2073656c6c00000000000000600082015250565b6000612b34601983612526565b9150612b3f82612afe565b602082019050919050565b60006020820190508181036000830152612b6381612b27565b9050919050565b7f596f7520616c72656164792068617665206f6e6520616374697665207265717560008201527f6573742070656e64696e67000000000000000000000000000000000000000000602082015250565b6000612bc6602b83612526565b9150612bd182612b6a565b604082019050919050565b60006020820190508181036000830152612bf581612bb9565b9050919050565b7f4e487b7100000000000000000000000000000000000000000000000000000000600052601160045260246000fd5b6000612c3682612630565b91507fffffffffffffffffffffffffffffffffffffffffffffffffffffffffffffffff8203612c6857612c67612bfc565b5b600182019050919050565b6000604082019050612c886000830185612709565b612c956020830184612709565b9392505050565b7f53656c6c2072657175657374206973206e6f7420616374697665000000000000600082015250565b6000612cd2601a83612526565b9150612cdd82612c9c565b602082019050919050565b60006020820190508181036000830152612d0181612cc5565b9050919050565b6000612d1382612630565b9150612d1e83612630565b9250828201905080821115612d3657612d35612bfc565b5b92915050565b7f457863656564732077616c6c6574206c696d6974000000000000000000000000600082015250565b6000612d72601483612526565b9150612d7d82612d3c565b602082019050919050565b60006020820190508181036000830152612da181612d65565b9050919050565b7f4f6e6c792073656c6c65722063616e2066696e616c697a650000000000000000600082015250565b6000612dde601883612526565b9150612de982612da8565b602082019050919050565b60006020820190508181036000830152612e0d81612dd1565b9050919050565b7f496e76616c696420626964646572000000000000000000000000000000000000600082015250565b6000612e4a600e83612526565b9150612e5582612e14565b602082019050919050565b60006020820190508181036000830152612e7981612e3d565b9050919050565b7f4e487b7100000000000000000000000000000000000000000000000000000000600052603260045260246000fd5b7f42757965722068617320696e73756666696369656e742066756e647300000000600082015250565b6000612ee5601c83612526565b9150612ef082612eaf565b602082019050919050565b60006020820190508181036000830152612f1481612ed8565b9050919050565b7f4e487b7100000000000000000000000000000000000000000000000000000000600052601260045260246000fd5b6000612f5582612630565b9150612f6083612630565b925082612f7057612f6f612f1b565b5b828204905092915050565b7f496e76616c69642062696420616d6f756e740000000000000000000000000000600082015250565b6000612fb1601283612526565b9150612fbc82612f7b565b602082019050919050565b60006020820190508181036000830152612fe081612fa4565b9050919050565b6000612ff282612630565b9150612ffd83612630565b925082820261300b81612630565b9150828204841483151761302257613021612bfc565b5b5092915050565b600061303482612630565b915061303f83612630565b925082820390508181111561305757613056612bfc565b5b92915050565b7f43616e20627579203120746f20352073686172657320617420612074696d6500600082015250565b6000613093601f83612526565b915061309e8261305d565b602082019050919050565b600060208201905081810360008301526130c281613086565b9050919050565b7f4d617820313020736861726573207065722077616c6c65740000000000000000600082015250565b60006130ff601883612526565b915061310a826130c9565b602082019050919050565b6000602082019050818103600083015261312e816130f2565b9050919050565b7f4e6f7420656e6f75676820736861726573206c65667400000000000000000000600082015250565b600061316b601683612526565b915061317682613135565b602082019050919050565b6000602082019050818103600083015261319a8161315e565b9050919050565b7f496e73756666696369656e742066756e64000000000000000000000000000000600082015250565b60006131d7601183612526565b91506131e2826131a1565b602082019050919050565b60006020820190508181036000830152613206816131ca565b9050919050565b60006060820190506132226000830186612760565b61322f6020830185612709565b61323c6040830184612709565b94935050505056fea26469706673582212201b1f9091e523ad74afeb159aa30ac6e1e96e62f04b83b6bdfeb1fc287b2c458b64736f6c634300081c0033",
  "linkReferences": {},
  "deployedLinkReferences": {}
}